:020000040000FA
:1080000038E2000025A00000358200003782000021
:108010003B8200003F82000043820000000000001D
:108020000000000000000000000000004982000085
:1080300047820000000000004B820000AD8200007B
:108040004D8200004F8200005182000053820000E8
:108050005582000057820000DD820000E5820000AA
:10806000ED820000F5820000FD82000059820000D0
:108070005B8200005D8200005F8200006182000080
:108080006382000065820000678200006982000050
:108090006B8200006D8200006F820000058300008B
:1080A00071820000738200007582000077820000F8
:1080B000798200007B8200007D8200007F820000C8
:1080C0008182000083820000858200008782000098
:1080D00089820000B5820000BD820000C5820000D8
:1080E0000D8300008B8200008D8200008F820000D3
:1080F0009182000093820000958200009782000028
:10810000998200009B8200009D8200009F820000F7
:10811000CD820000D5820000A1820000A382000071
:10812000A5820000A7820000A9820000AB820000A7
:1081300000F002F800F06FF80AA090E8000C82440A
:108140008344AAF10107DA4501D100F064F8AFF2E7
:10815000090EBAE80F0013F0010F18BFFB1A43F025
:1081600001031847B4530000C45300000023002447
:1081700000250026103A28BF78C1FBD8520728BF37
:1081800030C148BF0B607047662905F0A2806529A1
:1081900005F09F80672905F09C80612905F09B8090
:1081A000692903F0CD81642903F0CA81752903F0A0
:1081B000C7816F2903F05A82782903F0838203680C
:1081C000DB0928BF41F08001632904F09080E32996
:1081D00004F0A380002070471FB505F073F89DE8F8
:1081E000030004F001F903F07FFB04F0DFF8040062
:1081F0000020002104F0F2FF401C606000200021FC
:1082000004F0D6FFE06003F0C1FB1FBD10B50020F5
:1082100004F0AAFF10BD04F018FA1146FFF7DCFFC6
:1082200000F0F6F804F050FA03B4FFF7EFFF03BCD8
:1082300004F0C8FA704700BFFEE700BFFEE700BFCA
:10824000FEE700BFFEE77047704770477047704712
:108250007047704770477047704770477047704766
:108260007047704770477047704770477047704756
:108270007047704770477047704770477047704746
:108280007047704770477047704770477047704736
:108290007047704770477047704770477047704726
:1082A00070477047704770477047704710B500F0CF
:1082B00031F810BD10B500F038F810BD10B500F061
:1082C0003AF810BD10B500F03CF810BD10B500F044
:1082D0003EF810BD10B500F040F810BD10B500F02C
:1082E00042F810BD10B500F03EF810BD10B500F01A
:1082F0003AF810BD10B500F036F810BD10B500F01A
:1083000032F810BD10B500F02EF810BD10B500F019
:108310002AF810BD43480068401C424908604248A2
:108320000068401C40490860704710B53F4940480C
:1083300004F0A4FE10BD10B53E493F4804F09EFE77
:1083400010BD10B53D493E4804F098FE10BD10B573
:108350003C493D4804F092FE10BD10B53B493C48F5
:1083600004F08CFE10BD10B500240FE0394951F81F
:10837000240000F0F5FB40B1374951F82400804754
:10838000344951F8240000F0FCFB641C0F2CEDDD97
:1083900010BD70B5314803F03AF8012823D130A15F
:1083A000224802F0D5FB002417E0E1B22B4803F08D
:1083B00025F8054601461D4802F030FB29A11B485F
:1083C00002F0C6FBE1B2254803F018F80546024664
:1083D000E1B2224802F0FFFF641C082CE5DB22A179
:1083E000124802F0B5FB70BD08B51C4802F0C6FF8C
:1083F0004FF4E130009069460C4802F051FA1BA19D
:108400000A4802F0A5FB4FF47A7002F0F2F908BDB9
:1084100010B502F094FCFFF7E7FF01E0FFF7B9FFAA
:10842000FCE700005CD6000060D6000024D7000006
:108430000038014048D70000004400406CD70000DD
:108440000048004090D70000004C0040B4D7000026
:1084500000500040D0D30000D8D60000CCD6000099
:1084600043483A002C0000000A0000004172647585
:1084700050696C6F74204D656761205243206C69B0
:10848000627261727920746573740A0D00000000D5
:1084900010B50446FC48201806D0B0F5806F0DD00A
:1084A000B0F5C05F1ED113E00121480201F04FFB7F
:1084B00000214FF4007001F04AFB14E00121880212
:1084C00001F045FB00214FF4806001F040FB0AE021
:1084D0000121C80301F03BFB00214FF4004001F0F3
:1084E00036FB00E000BF00BF10BD30B50022002306
:1084F0004268E64C22400D790C6844EA0524224388
:1085000042608268E24C2240D1E902542C434D790A
:1085100044EA450422438260C26A22F470020C7C61
:10852000641E1C43E3B242EA0352C26230BD002122
:108530000160017141718160C16001210174704766
:1085400021B1826842F00102826003E0826822F079
:1085500001028260704721B1826842F480728260B9
:1085600003E0826822F480728260704710B50023B5
:10857000CBB21AB144681C43446002E044689C4397
:10858000446010BD816841F0080181607047014678
:1085900000208A6812F0080F01D0012000E00020BE
:1085A0007047816841F004018160704701460020F6
:1085B0008A6812F0040F01D0012000E0002070470B
:1085C00021B1826842F4A002826003E0826822F452
:1085D000A00282607047014600208A6812F4800F72
:1085E00001D0012000E00020704710B500220023D8
:1085F000426822F460424B1E42EA4332426010BDA0
:1086000021B1426842F40062426003E0426822F411
:10861000006242607047F0B500240025092911DD91
:10862000C468A1F10A0606EB4607072606FA07F515
:10863000AC43A1F10A0606EB460603FA06F52C4305
:10864000C4600CE0046901EB4107072606FA07F550
:10865000AC4301EB410603FA06F52C430461072AFB
:108660000FDA446B561E06EB86071F2606FA07F53F
:10867000AC43561E06EB860601FA06F52C4344630E
:1086800022E00D2A0FDA046BD61F06EB86071F26A1
:1086900006FA07F5AC43D61F06EB860601FA06F587
:1086A0002C43046310E0C46AA2F10D0606EB8607B2
:1086B0001F2606FA07F5AC43A2F10D0606EB860667
:1086C00001FA06F52C43C462F0BD21B1826842F480
:1086D0008012826003E0826822F480128260704718
:1086E0000146C86C80B270476A480068704721B183
:1086F000426842F48062426003E0426822F4806291
:108700004260704721B1426842F48052426003E007
:10871000426822F48052426070470022826822F44C
:10872000E0420A438260704721B1826842F400420D
:10873000826003E0826822F400428260704721B1C7
:10874000826842F40212826003E0826822F402121C
:1087500082607047014600208A6812F4001F01D031
:10876000012000E000207047F0B50024002500261D
:10877000092911DDC468A1F10A0707EB470C072797
:1087800007FA0CF5AC43A1F10A0707EB470703FA18
:1087900007F52C43C4600CE0046901EB410C07278A
:1087A00007FA0CF5AC4301EB410703FA07F52C433C
:1087B0000461846BC4F30156D71C06F1010CA7EBCE
:1087C0000C0707EB870C1F2707FA0CF5AC43D71CE7
:1087D00006F1010CA7EB0C0707EB870701FA07F579
:1087E0002C438463F0BD10B500220023826B22F479
:1087F00040124B1E42EA0352826310BD4250704742
:1088000002465018806A80B2704700224268224BAC
:108810001A400A43426070474162826270470022F8
:10882000426822F01F020A434260704738B11B4978
:10883000096841F400011A4AC2F8081406E0174911
:10884000096821F40001164AC2F80814704702466C
:10885000002013680B4201D0012000E00020704787
:10886000CA430260704770B502460020002300240E
:108870000B125568CEB205EA060415681D4211D0E8
:1088800084B101200FE0000000DCFEBFFFFEF0FF1E
:10889000FDF7F1FF4C240140FFFD3FFF082401409C
:1088A00000200140002070BD00220A12D343036063
:1088B0007047000010B50121480701F055F900216B
:1088C0004FF0005001F050F910BD30B500220023E8
:1088D0005B4C226840F6FE7404FA00F422EA0402BB
:1088E000D1E9004544EA05048D6844EA0504CD68F1
:1088F00044EA050303FA00F444EA0202514CC4F8C6
:10890000002430BD0021016041608160C16070477A
:1089100059B14B4A13684FF0010202FA00F243EAE0
:108920000203484AC2F800340AE0454A13684FF08F
:10893000010202FA00F223EA0203424AC2F80034BA
:10894000704759B13E4A13684FF4805202FA00F260
:1089500043EA02033B4AC2F800340AE0384A13688B
:108960004FF4805202FA00F223EA0203354AC2F8B9
:108970000034704710B569B1334A13684FEA1014D8
:108980004FF0010202FA04F243EA02032D4AC2F850
:1089900004340CE02C4A12684FEA10144FF0010323
:1089A00003FA04F322EA0302264BC3F8042410BDA1
:1089B00038B12549096841F00301224AC2F804147C
:1089C00006E02149096821F003011E4AC2F8041497
:1089D000704710B54AB11A4B1B6801FA00F443EA1C
:1089E0000403184CC4F8003408E0154B1B6801FA66
:1089F00000F423EA0403134CC4F8003410BD114AF8
:108A00000244C2F8081470470E4A0244C2F8141413
:108A1000704710B50023082802D142EA012301E083
:108A200042EA0143074C0444C4F8203410BD014617
:108A3000044800EB9100D0F82C0480B2704700008D
:108A400000740040007000400474004000204E4953
:108A500008604E49C1F804044D49086001F1040161
:108A600008604C484C4908607047817900294DD016
:108A70004649D1F8001402689143444AC2F80014F0
:108A80001146D1F8041402689143444A11600179F7
:108A90003E4A1144D1F80014026841EA0201027909
:108AA0003A4B1A44C2F800141946D1F80814026867
:108AB00021EA02011A46C2F808141146D1F80C1432
:108AC000026821EA0201364A11604179102910D169
:108AD0001946D1F80814026811431A46C2F808145E
:108AE0001146D1F80C14026811431A46C2F80C144E
:108AF00018E04179254A1144D1F800140268114365
:108B00004279224B1A44C2F800140BE001791F4A43
:108B10001144D1F800140268914302791B4B1A44A6
:108B2000C2F8001470470021016001710C214171ED
:108B30000021817170471B49096841EA0001134A0D
:108B4000C2F81014704701460020134A12680A4206
:108B500001D0012000E0002070470F4908607047F5
:108B6000014600200022084B1B6803EA0102074B64
:108B7000D3F814340B4202D00AB1012000E00020E7
:108B8000704705490860704700040140000001403B
:108B900008040140FFFF07001404014004040140E1
:108BA0000C04014010040140FC49096801F038013F
:108BB000FA4A116011460968014311607047F7498C
:108BC000096821F00801F54A11601146096801435E
:108BD00011607047F149096821F01001EF4A1160F6
:108BE00011460968014311607047ED48EB49486040
:108BF000EC4848607047E948006940F08000E74968
:108C0000086170470420E549C96801F001010129A4
:108C100001D101200EE0E149C96811F0040F01D033
:108C2000022007E0DD49C96811F0100F01D00320D0
:108C300000E0042070470020FF2000E0401E0028D4
:108C4000FCD1704770B504460425FFF7DBFF0546ED
:108C500005E0FFF7F0FFFFF7D5FF0546641E012D85
:108C600001D1002CF5D104B90525284670BD70B599
:108C70000446042540F6FF70FFF7E4FF0546042D87
:108C800019D1C648006940F00200C449086108468D
:108C90004461006940F04000086140F6FF70FFF752
:108CA000D1FF0546012D06D0BC48006941F6FD7193
:108CB0000840BA490861284670BD10B5042440F642
:108CC000FF70FFF7BFFF0446042C18D1B3480069BA
:108CD00040F00400B14908610846006940F04000D6
:108CE000086140F6FF70FFF7ADFF0446012C06D087
:108CF000AA48006941F6FB710840A849086120466E
:108D000010BD10B5042440F6FF70FFF79BFF04462A
:108D1000042C3CD1A248A1498860A248886008463A
:108D2000006940F0200008610846006940F04000FA
:108D3000086140F6FF70FFF785FF0446042C1DD143
:108D40009648006941F6DF71084094490861084679
:108D5000006940F010000861A520934908804FF099
:108D60000F00FFF76FFF0446012C10D08B480069FD
:108D700041F6EF7108408949086108E0012C06D0EE
:108D80008648006941F6EF71084084490861204631
:108D900010BD70B504460D4604260F20FFF752FFA4
:108DA0000646042E25D17D48006940F001007B492C
:108DB000086125800F20FFF745FF0646042E0FD1DE
:108DC000280C60800F20FFF73DFF0646012E10D0D3
:108DD0007248006941F6FE7108407049086108E078
:108DE000012E06D06D48006941F6FE7108406B49BE
:108DF0000861304670BD70B504460D4604260F204C
:108E0000FFF720FF0646042E13D16448006940F0A6
:108E100001006249086125800F20FFF713FF064615
:108E2000012E06D05D48006941F6FE7108405B499D
:108E30000861304670BD70B504460D4604260F200B
:108E4000FFF700FF0646042E17D1554853498860A6
:108E5000544888600846006940F010000861258089
:108E60000F20FFF7EFFE0646012E06D04B480069A3
:108E700041F6EF71084049490861304670BD2DE95F
:108E8000F04704464FF6FF752E462F46A8464FF092
:108E90000409E443E5B2C4F30726C4F307474FEAE5
:108EA00014680F20FFF7CEFE8146B9F1040F41D1BF
:108EB0003B483A4988603B4888600846006940F072
:108EC00010000861FF2D06D0384805804FF00F00D4
:108ED000FFF7B8FE8146B9F1040F08D1FF2E06D086
:108EE000334806804FF00F00FFF7ACFE8146B9F122
:108EF000040F08D1FF2F06D02E4807804FF00F0037
:108F0000FFF7A0FE8146B9F1040F09D1B8F1FF0FB8
:108F100006D02948A0F80E880F20FFF793FE81465F
:108F2000B9F1010F06D01D48006941F6EF71084004
:108F30001A4908614846BDE8F08770B50446042523
:108F400040F6FF70FFF77EFE0546042D51D1144810
:108F500012498860134888600846006940F0200084
:108F600008610846006940F04000086140F6FF7063
:108F7000FFF768FE0546042D32D10848006941F626
:108F8000DF710840054908610846006940F010009B
:108F900008619CB100200449088012E000200240D2
:108FA00023016745AB89EFCD00F8FF1F08F8FF1FCD
:108FB0000AF8FF1F0CF8FF1F00F0FF1FA52045490E
:108FC000088040F6FF70FFF73DFE0546012D10D0EA
:108FD0004148006941F6EF7108403F49086108E0E7
:108FE000012D06D03C48006941F6DF7108403A493E
:108FF0000861284670BD2DE9F04104460D4616462D
:109000000427364834498860354888600F20FFF7C8
:1090100019FE0746042F1AD12F48006940F01000AE
:109020002D49086144EA0500304340F0F8002D491D
:1090300008804FF00F00FFF705FE0746012F06D00E
:109040002548006941F6EF71084023490861384618
:10905000BDE8F0812048C069800870471E48006A5A
:10906000704700201C49C96911F0020F01D001208E
:1090700000E00020704700201749096811F0200F18
:1090800001D0012000E00020704729B1124A126986
:109090000243114B1A6104E00F4A126982430E4BDE
:1090A0001A61704701460020012908D10A4AD26995
:1090B00012F0010F01D0012008E0002006E0064A6E
:1090C000D2680A4201D0012000E000207047024926
:1090D000C860704700F8FF1F002002402301674569
:1090E000AB89EFCD02F8FF1F10B50446C149601AE5
:1090F0008C422FD009DCC048201810D0B0F5806F0A
:1091000016D0B0F5006F4AD11BE0B0F5806F2AD0C1
:10911000B0F5006F30D0B0F5406F40D135E001219F
:10912000042000F014FD0021042000F010FD37E0C1
:109130000121082000F00BFD0021082000F007FDB0
:109140002EE00121102000F002FD0021102000F08F
:10915000FEFC25E00121202000F0F9FC0021202068
:1091600000F0F5FC1CE00121402000F0F0FC0021A3
:10917000402000F0ECFC13E00121802000F0E7FC2F
:109180000021802000F0E3FC0AE00121080200F049
:10919000DEFC00214FF4807000F0D9FC00E000BF3D
:1091A00000BF10BD10B50121084600F0D0FC002121
:1091B000012000F0CCFC10BD2DE9F041002200237D
:1091C000002400250026002791F803C00CF00F02B0
:1091D00091F803C01CF0100F03D091F802C04CEAC4
:1091E0000202B1F800C01CF0FF0F30D00668002466
:1091F0002AE04FF0010C0CFA04F5B1F800C00CEABB
:109200000503AB421FD1A5004FF00F0C0CFA05F778
:10921000BE4302FA05FC4CEA060691F803C0BCF115
:10922000280F05D14FF0010C0CFA04FCC0F814C053
:1092300091F803C0BCF1480F05D14FF0010C0CFAB6
:1092400004FCC0F810C0641C082CD2D30660B1F82E
:1092500000C0BCF1FF0F34DD466800242EE004F1AD
:10926000080C4FF0010808FA0CF5B1F800C00CEA40
:109270000503AB4221D1A5004FF00F0C0CFA05F706
:10928000BE4302FA05FC4CEA060691F803C0BCF1A5
:10929000280F05D104F1080C08FA0CF8C0F8148066
:1092A00091F803C0BCF1480F07D104F1080C4FF04E
:1092B000010808FA0CF8C0F81080641C082CCED302
:1092C0004660BDE8F0814FF6FF7101800221817098
:1092D0000421C17070470246002093680B4201D000
:1092E000012000E0002070470146886880B2704786
:1092F00002460020D3680B4201D0012000E000208C
:1093000070470146C86880B270470161704741618B
:1093100070470AB1016100E041617047C160704768
:109320004FF480320A43826181618261826982697D
:1093300070470022314B1A684FF680731A4042EA98
:1093400000120A432D4B1A6070472D49C8617047BF
:10935000F0B50022002300250024284E7568C0F3D4
:10936000034482B200F44016B6F5401F08D125F040
:109370007065224E766826F07066204F7E6012E09F
:1093800000F48016B6F5801F06D1032606FA04F312
:109390009D4345F0706506E0460D360102FA06F67B
:1093A000B54345F0706521B1460D360102FA06F667
:1093B0003543124E7560F0BD30B500228B071C0F8F
:1093C0000F2303FA04F20D4B08338C1053F824409A
:1093D00094438D1043F825408C1053F824308C07AB
:1093E000240F00FA04F42343044C08348D1044F88D
:1093F000253030BD0014014000F8FEBF00000140E0
:10940000000020420020411EF74A11606FF07042B8
:10941000F649C1F884204FF0FF314FF0E022C2F846
:1094200080126FF07042F2490A6000BF04E000222F
:10943000F04941F82020401C0F28F8D37047002045
:109440004FF02061EC4A116001464FF0E022C2F873
:10945000081DEA49EA4A1160014602F1040211605E
:1094600002F10402116000BF05E00022E4490C3162
:1094700041F82020401C0328F7D30021E14A116065
:109480004FF0FF314FF0E022C2F8281DDE4A116094
:109490004FF0E022C2F8301D7047D8490143D84A46
:1094A00011607047F0B500210022002300240F2531
:1094B000C678002E48D0D24E366806F4E066C6F56F
:1094C000E0664FEA1621C1F1040425FA01F5467859
:1094D00006FA04F1867806EA050646EA01014FEA33
:1094E000011106784FEA86764FEAD66601FA06F150
:1094F000C04E07784FEAA70756F8272006784FEAAC
:1095000086764FEAD6674FF0FF0606FA07F322EA9F
:10951000030201EA030142EA0102B64E07784FEA6C
:10952000A70746F82720067806F01F074FF0010628
:1095300006FA07F607784FEA67174FF0E02C0CEBB6
:109540008707C7F800610BE0067806F01F060127C1
:10955000B740A54E90F800C04FEA6C1C46F82C703E
:10956000F0BD0021017041708170C170704710B56D
:1095700000F091FD10BD10B500F08BFD10BD10B5D1
:1095800000F08EFD10BD10B500F08CFD10BD10B5C3
:109590000446200100F08BFD10BD10B500F08AFDDF
:1095A00010BD95480068C0F30930704710B50146FA
:1095B0000020002201F01F04012303FA04F28A4B69
:1095C00080334C1153F824301340934201D10120D1
:1095D00000E0002010BD8D490860704700F01F01B9
:1095E00001228A408249091F431141F82320704714
:1095F00081480068C0F30900704710B5014600209B
:10960000002201F01F04012303FA04F2784B7C339B
:109610004C1153F824301340934201D1012000E053
:10962000002010BD7A48006870477A4A0A40024319
:10963000794B1A6070477148001D71490860704786
:109640006E48401C6E490860704741B1734A126809
:1096500042EA00024FF0E023C3F8102D07E06F4A02
:10966000126822EA00024FF0E023C3F8102D704781
:1096700010B5002200F01F04012303FA04F241B1E7
:10968000604B1B6843EA02034FF0E024C4F8243D1A
:1096900007E05C4B1B6823EA02034FF0E024C4F8A8
:1096A000243D10BDF0B50023FF2400250026544FB3
:1096B0003F6807F4E067C7F5E0674FEA1726C6F191
:1096C000040324FA06F401FA03F602EA040747EA5F
:1096D00006064FEA061600F0C0034FEA9313C0F3E4
:1096E00001244FEAC40706FA07F64FEAC40C4FF00C
:1096F000FF0707FA0CF54A4F57F823C02CEA050C70
:1097000047F823C057F823C04CEA060C47F823C09B
:10971000F0BD10B501460020002200238B0A03F0A3
:109720000F03012404FA03F3364C246804EA03020D
:109730009A4201D1012000E0002010BD002100F07C
:109740001F012D4A13684FF0010202FA01F243EAA9
:1097500002034FF0E022C2F8043D704710B500212B
:1097600000F01F01244A1368A1F101044FF0010227
:1097700002FA04F243EA02034FF0E022C2F8043D89
:1097800010BD10B50146002000230022C1F3833232
:10979000012404FA02F21B4C246804EA02039342F7
:1097A00001D1012000E0002010BD30B501460020AD
:1097B00000220023C1F38142C1F3015312B9124CBC
:1097C000206810E0012A0CD1164C24684FEAC3052A
:1097D00024FA05F0022B02D000F00F0003E0C0B223
:1097E00001E0114C206830BD80E100E000E100E0C4
:1097F00084E200E000E400E004ED00E00000FA058F
:109800000CED00E024ED00E02CED00E000EF00E0C6
:1098100000ED00E080FFFF1F08ED00E010ED00E02C
:1098200018ED00E028ED00E030ED00E001460020FA
:109830000022C1F3805212B9024B186801E0024BBA
:109840001868704734ED00E038ED00E0DB48006850
:1098500040F00100D949086008464068D8490840EE
:10986000D649486008460068D6490840D349086090
:109870000846006820F4802008600846406820F40C
:10988000FE004860002088607047CC49096821F4D8
:109890008031CA4A11601146096821F480211160A3
:1098A000B0F5803F03D0B0F5802F0ED106E0C3495C
:1098B000096841F48031C14A116007E0BF49096875
:1098C00041F4A021BD4A116000E000BF00BF704715
:1098D00010B501460022002300204A11012A02D1BE
:1098E000B64C236806E0022A02D1B44C236A01E098
:1098F000B24C636A01F01F02012494401C4201D063
:10990000012000E0002010BD10B5002400BF312070
:10991000FFF7DEFFAC490870081F0068401C091FF4
:109920000860081D007828B908460068A0F5807115
:10993000FF39ECD13120FFF7CBFF08B1012400E063
:109940000024204610BD00219C4A116821F0F80136
:1099500041EAC001116070479C49086070470022CD
:10996000964B5A6822F47C1240EA01031A43934B47
:109970005A60704795490866704700218F4A5168C0
:1099800021F003010143516070478C48406800F0AA
:109990000C0070470021894A516821F0F001014311
:1099A000516070470021854A516821F4E06101430C
:1099B000516070470021814A516821F4605141EAA9
:1099C000C0015160704729B17C4A527A02437B4BF7
:1099D0005A7206E0794A527AC343DBB21A40774B97
:1099E0005A7270477A49086070470021734A51687B
:1099F00021F440410143516070470021754A1170C4
:109A00006E4A82F82010012802D0042808D103E011
:109A10000121704A117004E005216E4A117000E0C6
:109A200000BF00BF70476C49086070476349096A0E
:109A30000143624A1162704768490860704730B557
:109A400000210022002300245C4D6D6805F00C010C
:109A500021B1042905D0082923D105E0604D056016
:109A600022E05F4D05601FE0544D6D6805F47012F3
:109A7000022505EB9242514D6D6805F480331BB908
:109A8000584D554305600BE04C4D6D6815F4003F93
:109A900003D0544D5543056002E0514D55430560D8
:109AA00002E04F4D056000BF00BF444D6D6805F0FA
:109AB000F00109094C4D6C5C0568E54045603F4D7F
:109AC0006D6805F4E061090A474D6C5C4568E54046
:109AD00085603A4D6D6805F46051C90A424D6C5C71
:109AE0004568E540C560354D6D6805F44041890B1A
:109AF0003D4D10356C5CC568B5FBF4F5056130BDB6
:109B000029B12E4A526902432C4B5A6104E02B4A78
:109B100052698243294B5A61704729B1274A926999
:109B20000243264B9A6104E0244A92698243234B04
:109B30009A61704729B1214AD26902431F4BDA6109
:109B400004E01E4AD26982431C4BDA61704729B196
:109B50001A4AD2680243194BDA6004E0174AD26805
:109B60008243164BDA60704729B1144A12690243E6
:109B7000124B1A6104E0114A126982430F4B1A61B9
:109B800070471A49086070471049C86470470B490C
:109B9000C87170470948406A40F0807007494862C0
:109BA000704701460020054A92680A4201D0012010
:109BB00000E00020704701498872704700100240A1
:109BC0000000FFF8FFFFF6FE68D6000000004242EA
:109BD000D800424220100240800442423C044242EB
:109BE00000127A0000093D00DAD20000400442422F
:109BF000042808D14FF0E021096941F004014FF039
:109C0000E022116107E04FF0E021096921F0040131
:109C10004FF0E022116170474FF0E021486170473A
:109C2000012808D14FF0E021096941F001014FF00E
:109C3000E02211610EE0811C08D14FF0E02109699A
:109C400021F001014FF0E022116103E000214FF00B
:109C5000E0229161704740B14FF0E021096941F085
:109C600002014FF0E022116107E04FF0E0210969A5
:109C700021F002014FF0E022116170474FF0E02027
:109C80008069704710B50146002200230020CB10E8
:109C9000022B03D14FF0E024226902E04FF0E024D0
:109CA000E26901248C40144201D0012000E0002030
:109CB00010BD000010B50446D749601A8C422BD065
:109CC00006DCD648201813D0B0F5806F38D119E0E3
:109CD000B0F5806F2AD0B0F56C4F31D101218803E7
:109CE000FFF735FF00214FF48040FFF730FF28E0F9
:109CF00001214804FFF738FF00214FF40030FFF73F
:109D000033FF1EE001218804FFF72EFF00214FF4EE
:109D10008020FFF729FF14E00121C804FFF724FF8A
:109D200000214FF40020FFF71FFF0AE00121080582
:109D3000FFF71AFF00214FF48010FFF715FF00E036
:109D400000BF00BF10BD2DE9F04786B004460D46A8
:109D50000026002700BF00BFB246A246268A4CF666
:109D6000FF700640E88806432682A6894EF6F31067
:109D70000640A88829890843698908430643A681C3
:109D8000A68A4FF6FF400640A8890643A68201A88E
:109D9000FFF755FE5446A248824501D1049F00E0DA
:109DA000039F07EBC70000EB071029688900B0FB91
:109DB000F1F86420B8FBF0F006013009642101FBE2
:109DC0001089322101EB09106421B0FBF1F000F0A1
:109DD0000F000643268106B0BDE8F0874FF4165108
:109DE000016000218180C18001810C21418100211D
:109DF0008181704710B50022028A4FF2FF031A409A
:109E00000B884C8823438C882343CC8823431A43F4
:109E1000028210BD0021018041808180C180704795
:109E200021B1828942F40052828104E082894DF698
:109E3000FF731A4082817047F0B500240025002688
:109E400000230346C1F3421401F01F05012707FA5E
:109E500005F6012C01D10C3304E0022C01D11033A2
:109E600000E014331AB11F6837431F6002E01F6817
:109E7000B7431F60F0BD10B51AB1838A0B438382CC
:109E800004E0838ACC43A4B22340838210BD028ABB
:109E90004FF6F0731A400282028A0A430282704728
:109EA00082894FF2FF731A40828182890A4382813C
:109EB000704721B1828942F00202828104E08289E6
:109EC0004FF6FD731A4082817047028A4FF6DF73A6
:109ED0001A400282028A0A430282704721B1028A32
:109EE00042F48042028204E0028A4BF6FF731A4079
:109EF00002827047C1F30802828070470146888859
:109F0000C0F308007047818941F0010181817047E9
:109F1000028BD2B20283028B42EA01220283704793
:109F2000028B02F47F420283028B0A430283704752
:109F300021B1828A42F02002828204E0828A4FF6B6
:109F4000DF731A408282704721B1828A42F0100288
:109F5000828204E0828A4FF6EF731A408282704751
:109F600021B1828A42F00802828204E0828A4FF69E
:109F7000F7731A4082827047828A4FF6FB731A4049
:109F80008282828A0A438282704721B1828A42F0A9
:109F90000202828204E0828A4FF6FD731A408282B6
:109FA00070470246002013880B4201D0012000E0D8
:109FB00000207047CA430280704770B502460023F4
:109FC000002400250020C1F3421501F01F040126E2
:109FD00006FA04F4012D02D19689344006E0022DE0
:109FE00002D1168A344001E0968A34400B120126D1
:109FF00006FA03F31688334014B10BB1012000E0D8
:10A00000002070BD10B5002200230A1201249440E4
:10A01000A3B2DC43048010BD004C004000BCFFBF75
:10A02000003801400348004703480449044A054BEF
:10A03000704700003181000038DA000038E200008B
:10A0400038DE000038DE000030BF704720BF7047A8
:10A0500040BF7047BFF36F8F7047BFF34F8F70479C
:10A06000BFF35F8F704701DF7047EFF314807047D5
:10A0700080F31488BFF36F8F7047EFF30980704748
:10A0800080F309887047EFF30880704780F30888F1
:10A09000704762B6704772B67047EFF31080704732
:10A0A00071B6704761B67047EFF31380704780F365
:10A0B00011887047EFF31280704740BA704700BABA
:10A0C000704700000A09521E384B53F822204260A4
:10A0D00001F00F02364B33F8122002810A09521E9A
:10A0E000344B9A5C027501F00F02334B9A5C427557
:10A0F0000A09521E314B53F82220826101F00F02EF
:10A100002F4B53F82220C26301F00F0202700A099C
:10A110004270704730B504460D462A48405DA07233
:10A12000A17A2046FFF7CEFF2748405DE07230BDA0
:10A1300030B504460D46681E2449085C2073217B17
:10A140002046FFF7BFFF681E214951F8200020611B
:10A1500030BD30B590B005460C46601E1D4A115CFE
:10A160006846FFF7AFFFBDF80800A8830198286292
:10A1700006986862601E184A52F82000C1B268460C
:10A18000FFF7A0FFBDF8080028850198E86206984F
:10A190002863601E114951F820006863601E104951
:10A1A00051F82000A86310B030BD0000F0D20000CC
:10A1B0000CD300002CD3000033D3000044D30000A4
:10A1C000D0D3000060D3000070D3000082D3000021
:10A1D00084D30000A0D30000A8D300008CD30000DB
:10A1E000BCD300007047017070471FB504460121C1
:10A1F0004807FFF79FFC00200090019003906946FC
:10A200002046FEF762FB01212046FEF781FB00217C
:10A210002046FEF796FB00212046FEF7ABFB002010
:10A22000FEF7C6FB1FBD30B595B004460D4621783C
:10A2300005A8FFF77DFFBDF81C20002301A80699A3
:10A2400000F01EF82078012804D1C5F30B0100208E
:10A25000FEF7D5FB2078022804D1C5F30B010020BE
:10A26000FEF7D2FB15B030BD10B590B00446217892
:10A270006846FFF75DFF0498FEF7D9FB10B010BDEC
:10A280002DE9F04104460D4616461F4665602681BD
:10A29000A7720321A173A17AE1732089A08104F13F
:10A2A0000C016068FEF788FF2046BDE8F08170B5BC
:10A2B00094B004460E461546A57231466846FFF72F
:10A2C00001FFA37ABDF8082010A80199FFF7D8FF75
:10A2D000204614B070BD4168096902891143426883
:10A2E00011617047416849690289114342685161AF
:10A2F0007047416889680289114206D041684969FE
:10A30000028911434268516105E041680969028987
:10A3100011434268116170470146486880680A89A4
:10A32000104201D0012070470020FCE770B50446C0
:10A33000002035490860FFF7A1FC33490968491C32
:10A34000324A514340F26542624301EBC2010D1AA9
:10A3500000BFFFF793FC2C490968491C2B4A514365
:10A36000081AA842F5D370BD70B5044600202649EE
:10A370000860FFF783FC04EBC40223490968491C09
:10A38000224B03FB01210D1A00BFFFF777FC1E498A
:10A390000968491C1D4A5143081AA842F5D370BDEB
:10A3A00010B500EB8002D10005E0002301E05A1C4B
:10A3B00093B2C82BFBDB0A00A1F10101F5D110BD5E
:10A3C00000EB8002510000BF0A00A1F10101FBD1A6
:10A3D000704710B5FFF752FC0D490968491C0B4A3C
:10A3E0005143081A42F22831B0FBF1F010BD10B50C
:10A3F000FFF744FC06490968491C044A5143081AFE
:10A400000921B0FBF1F010BD60D600004054890076
:10A410005CD60000704701600271704710B586B0CD
:10A4200004464FF40040FFF7E0FA2046FEF730F80C
:10A43000002001908DF808008DF809004FF460208D
:10A4400003900020049001208DF8140001A92046FB
:10A45000FEF74BF801212046FEF772F82046FEF782
:10A4600091F800BF2046FEF792F80028FAD1204666
:10A47000FEF797F800BF2046FEF798F80028FAD1BB
:10A4800006B010BD10B50120FEF7D0F910BD30B5F3
:10A4900095B004460D46217905A8FFF73BFE2079CB
:10A4A00010280AD02079112807D0BDF81C200023DD
:10A4B00001A80699FFF7E4FE00BF9DF81F102B4688
:10A4C00001222068FEF7A7F801212068FEF778F83E
:10A4D00000BF02212068FEF7BAF90028F9D02068F1
:10A4E000FEF7FEF815B030BD01707047017270477D
:10A4F0004172704730B591B004460D46217801A8ED
:10A50000FFF7E0FD9DF804002C4941F8205011B000
:10A5100030BD10B590B0044621786846FFF7D2FDF3
:10A520009DF815109DF81400FEF746FF0F98606027
:10A530000121A172201DFEF798FA21490F980968A0
:10A5400008431F49086010B010BD10B590B0044614
:10A5500021786846FFF7B6FD1A4801689DF800208B
:10A560004FF0010000FA02F021EA00011648C0F89D
:10A57000001413490F98096840EA01001049086067
:10A5800010B010BD0F4800680D49096840EA01008D
:10A590000D49C1F8000470470A480068084908607E
:10A5A0000948D0F800046FF30F00064908604FF621
:10A5B000FF700549C1F8140470470000D8D60000A8
:10A5C0006CD60000000401400000014030B595B099
:10A5D00004460D46214605A8FFF774FDBDF81C2072
:10A5E0002B4601A80699FFF74BFE15B030BD30B5DC
:10A5F00091B004460D46214601A8FFF763FD3DB129
:10A6000002980069BDF80C1008430299086106E041
:10A6100002984069BDF80C1008430299486111B0D6
:10A6200030BD10B590B0044621466846FFF74AFD9C
:10A6300001988068BDF80810084202D0012010B0CF
:10A6400010BD0020FBE710B590B0044621466846D7
:10A65000FFF738FD01988068BDF80810084207D060
:10A6600001984069BDF8081008430199486106E067
:10A6700001980069BDF8081008430199086110B0FD
:10A6800010BD1CB50446224683496846FFF7C3FE49
:10A6900000216846FFF7FBFE1CBD38B504460D4699
:10A6A00021466846FFF79FFD29466846FFF7BBFD38
:10A6B00038BD38B5044621466846FFF794FD684624
:10A6C000FFF7D2FD38BDFEB504460D4616462146BD
:10A6D0006846FFF709FF29466846FFF70BFF002190
:10A6E0006846FFF703FF31466846FFF701FF6846FB
:10A6F000FFF70FFFFEBD3EB5044621466846FFF753
:10A70000F3FE6846FFF721FF3EBD10B5FFF73AFFA5
:10A7100010BD10B5FFF740FF10BD2DE9F041044614
:10A720000F4690461E4600213846FFF760FF002581
:10A730001CE0B8F1000F07D146FA05F000F0010166
:10A740002046FFF754FF08E0C5F1070046FA00F085
:10A7500000F001012046FFF74AFF01213846FFF7CC
:10A7600046FF00213846FFF742FF6D1C072DE0DD54
:10A7700000212046FFF73BFFBDE8F08110B5FFF751
:10A7800036FE10BD2DE9F04704460D461646FFF78C
:10A79000F5FF814600BF2046FFF743FFA84205D0E2
:10A7A000FFF7ECFFA0EB0900B042F4D3FFF7E6FFA0
:10A7B000074600BF2EB1FFF7E1FFA0EB0900B04252
:10A7C00004D22046FFF72DFFA842F3D0FFF7D6FFB3
:10A7D0008046FFF7D3FFA0EB0900B04202D3002070
:10A7E000BDE8F087A8EB0700FAE710B5FFF7F1FD29
:10A7F00010BD10B504462046FFF798FD10BD10B5FA
:10A8000004462046FFF7B0FD10BD10B504462046B3
:10A81000FFF7C6FD10BD10B504462046FFF7D0FD7A
:10A8200010BD2DE9F04104467CB9FFF7A7FF0646AD
:10A830001020FFF726FF07461020FFF722FF07FB37
:10A840000065284601F03CF802E0204601F038F8A7
:10A85000BDE8F0812DE9F04104460D4627462E461D
:10A860000DB900272646F01B0C4988420ADA01F090
:10A870003DF8F11B094A92FBF1F190FBF1F03844ED
:10A88000BDE8F08101F032F8F11B044A91FBF2F1CE
:10A8900000FB0170F4E7000000240140FEFFFF7F91
:10A8A000F0B599B004460D4628686060A06870B1A4
:10A8B000A06802F015FCA061142002F015FC074608
:10A8C000A268A16902F0F5FC0746206100BFE068BC
:10A8D00068B1E06802F004FCE061142002F004FCBE
:10A8E0000646E268E16902F0E4FC06466061217810
:10A8F00005A8FFF72EFC01210E98FFF70EF90121A4
:10A900001198FFF70AF92078012804D10121139842
:10A91000FFF703F903E001211398FFF70BF9BDF8E6
:10A920003020042315A80D99FFF7AAFCBDF83C20A0
:10A93000182315A81099FFF7A3FC129820626068ED
:10A9400001900020ADF80800ADF80A00ADF80C0049
:10A95000ADF810000C20ADF80E0001A9206AFFF739
:10A96000F2F90121206AFFF75BFAA06828B1012201
:10A9700040F22551206AFFF75FFA19B0F0BD70B5BB
:10A9800004460D461646257066608020A0600020B3
:10A99000E060211D2046FFF783FF204670BD0A7846
:10A9A0000270802282600022C260704700BF026A8B
:10A9B000128812F0800FFAD0026A9180704770B549
:10A9C00004460D462946606902F03AFC206A8089F7
:10A9D00010F0800F05D1206A808940F08000216A44
:10A9E000888170BD70B504460D46E06820B12946E7
:10A9F0002046FFF7E4FF03E029462046FFF7D6FF95
:10AA000070BD70B505460C4604E014F8011B2846DD
:10AA1000FFF7E8FF20780028F7D170BD70B5B6B019
:10AA200004460E468AA500BFC82104A800F084FF92
:10AA30000023009301930293039333462A46C821CF
:10AA400004A800F0FFFC04A92046FFF7DAFF00BFCE
:10AA500000BF36B070BD70B5B6B004460E467DA5D9
:10AA600000BFC82104A800F067FF002300930193F2
:10AA70000293039333462A46C82104A800F0E2FC5F
:10AA800004A92046FFF7BDFF00BF00BF36B070BD70
:10AA900070B5B6B004460E466FA500BFC82104A825
:10AAA00000F04AFF0023009301930293039333467F
:10AAB0002A46C82104A800F0C5FC04A92046FFF7D7
:10AAC000A0FF00BF00BF36B070BD70B5B6B0044681
:10AAD0000E4661A500BFC82104A800F02DFF002389
:10AAE000009301930293039333462A46C82104A896
:10AAF00000F0A8FC04A92046FFF783FF00BF00BFB9
:10AB000036B070BD7FB5BCB0054654A4DDE93E014A
:10AB1000CDE93A01DDE93A01CDE93801C82106A8BD
:10AB200000F00AFF00230293039304930593DDE9E9
:10AB300038012246CDE90001C82106A800F082FCB8
:10AB400006A92846FFF75DFF00BF00BF40B070BDFB
:10AB500070B504460D4629462046FFF752FF70BDEA
:10AB6000014600BF086A008810F0200FFAD0086A7A
:10AB70008088C0B2704770B5054600BF286902F0F2
:10AB800043FB0400FAD0204670BD10B50446A0680F
:10AB900018B12046FFF7EFFF10BD2046FFF7E0FF9A
:10ABA000FAE770B504460D462946606902F048FB95
:10ABB00070BD70B504460D46606902F025FB054680
:10ABC000284670BD014600BF086A008810F0200FBB
:10ABD000FAD0086A8088C0F3080070470146086A06
:10ABE0000088C0F34010704710B50446206902F099
:10ABF00057FB10BD10B50446A06818B12046FFF7FA
:10AC0000F3FF10BD2046FFF7E9FFFAE781607047C8
:10AC1000C160704710B50446206902F03AFB10BDD0
:10AC200070B504460D4629462046FFF7EAFE70BD82
:10AC300010B50446A06902F04BFAE06902F048FA48
:10AC4000206902F049FA606902F046FA204610BD18
:10AC50002564000025750000256C75002566000040
:10AC600010B5FEF7F3FD4FF48030FEF70EFEFEF751
:10AC70004BFE044634BB1020FDF7ACFF0220FDF76D
:10AC800093FF0020FEF786FE0020FEF793FE4FF4B0
:10AC90008060FEF787FE4FF4E0114FF48030FEF73E
:10ACA0005EFE0120FEF766FE00BF3920FEF710FEB3
:10ACB0000028FAD00220FEF760FE00BFFEF765FE16
:10ACC0000828FBD110BD10B500214FF00060FEF741
:10ACD000ACFC10BD10B56FF00400FEF789FF4C48C6
:10ACE000FEF79AFF0120FEF7B6FF0120FEF798FF5E
:10ACF00010BD10B588B004A846A11CC91CC0684688
:10AD000047A11EC91EC04FF48060FEF7C6FB002499
:10AD100011E004A8005D8DF81C001DF804008DF8FA
:10AD20001D0000208DF81E0001208DF81F0007A8CF
:10AD3000FEF7B8FB641C0D2CEBDB08B010BD10B5A2
:10AD4000FFF78EFFFFF7BFFF012140F23D60FEF7E6
:10AD5000E4FEFFF7CEFFFFF7BDFF4FF40040FEF724
:10AD600044FE3348FFF75AFBFFF78CFBFDF7A2FDCB
:10AD70000020FFF73AFA1020FFF737FA80202D491C
:10AD800088600020C86010BD30B585B001200490F7
:10AD900004A92848FFF703FE0546274A274902F081
:10ADA000CBF904460220039003A92548FFF7F7FDDD
:10ADB0000546214A214902F0BFF9044603200290CA
:10ADC00002A92048FFF7EBFD05461B4A1B4902F08C
:10ADD000B3F904460420019001A91B48FFF7DFFDE9
:10ADE0000546154A154902F0A7F9044605200090CA
:10ADF00069461648FFF7D3FD05460F4A0F4902F092
:10AE00009BF90446124800F0E9F805B030BD000097
:10AE1000405489002526273435060708090A1728D3
:10AE20000101010101030303030303030300000005
:10AE30000024014024D700000080000031AC000055
:10AE400048D700006CD7000090D70000B4D70000AE
:10AE5000D8D70000002000E0401C3228FCDB7047FF
:10AE600001B5FFF7F7FF9DF801000021FFF7BFFBD9
:10AE7000FFF7F0FF9DF800000021FFF7B8FB08BDC9
:10AE800001B5FFF7E7FF9DF800000121FFF7AFFBD9
:10AE9000FFF7E0FF9DF801000121FFF7A8FB08BDC7
:10AEA00001B5FFF7D7FF9DF800000021FFF79FFBDA
:10AEB000FFF7D0FF9DF801000121FFF798FBFFF796
:10AEC000C9FF9DF800000121FFF791FBFFF7C2FFCA
:10AED0009DF80100FFF7A5FB40B9FFF7BBFF9DF808
:10AEE00000000021FFF783FB012008BDFFF7B2FF40
:10AEF0009DF800000021FFF77AFB0020F5E701B57F
:10AF0000FFF7A8FF9DF801000021FFF770FBFFF796
:10AF1000A1FF9DF800000121FFF769FBFFF79AFFF1
:10AF20009DF800000021FFF762FB08BD01B5FFF7A7
:10AF300091FF9DF801000121FFF759FBFFF78AFF00
:10AF40009DF800000121FFF752FB08BD31B5002537
:10AF5000002419E0FFF77EFF9DF800000121FFF7B4
:10AF600046FBFFF777FF9DF80100FFF75AFBC4F19E
:10AF7000070188402844C5B2FFF76CFF9DF8000028
:10AF80000021FFF734FB641C082CE3DB284638BDA6
:10AF900073B50C4600251EE0FFF75CFFC5F1070303
:10AFA00001229A40224201D0012200E000221146F3
:10AFB0009DF80100FFF71BFBFFF74CFF9DF8000019
:10AFC0000121FFF714FBFFF745FF9DF8000000216A
:10AFD000FFF70DFB6D1C082DDEDB7CBD0021C24A96
:10AFE000116000F8201F4170817080F8231080F8F4
:10AFF0002410A0F12000704770B504460D46164697
:10B000004620055584F8456010213046FFF7DEFAEA
:10B0100010212846FFF7DAFA01213046FFF7E7FA58
:10B0200001212846FFF7E3FA70BD10B5044615224A
:10B0300014212046FFF7E0FF10BD00F120008170D1
:10B040004FF0000280F8232080F824200270427024
:10B05000A0F12000704710B503460C46E1B2184637
:10B06000FFF7EBFF10BD38B504460D4614F8450F49
:10B070008DF8000060788DF8010029460098FFF7F0
:10B0800087FF20788DF800006078A4F145048DF8E2
:10B0900001000098FFF704FF08B9032038BD002025
:10B0A000FCE7F8B5044694F8440008B10120F8BD67
:10B0B00014F8450F8DF8000060788DF801000098B5
:10B0C000FFF7CEFE20788DF8000060788DF8010043
:10B0D00014F8230C002242EA4000C1B20098FFF7A6
:10B0E00057FF20788DF800006078A4F145048DF8B2
:10B0F00001000098FFF7D4FE08B90220D7E7002529
:10B100000BE004F12300415D2046FFF7ACFF06464B
:10B110000EB13046CBE7681CC5B294F84300A84294
:10B12000EFDC04F14304A0788DF80000E0788DF89E
:10B1300001000098FFF7A4FE002020706070A4F1C9
:10B140004304B4E7F8B504460D46164614F8450F17
:10B150008DF8000060788DF801000098FFF780FE00
:10B1600020788DF8000060788DF80100012000EB58
:10B170004500C1B20098FFF70BFF20788DF8000062
:10B180006078A4F145048DF801000098FFF788FE6F
:10B1900008B90220F8BD14F8450F8DF8000060785A
:10B1A0008DF801000098FFF7D1FE307020788DF8FF
:10B1B000000060788DF801000098FFF7B7FE207856
:10B1C0008DF800006078A4F145048DF80100009826
:10B1D000FFF756FE0020DDE770B504460D46164623
:10B1E000202E00DD2026002084F8200084F8210095
:10B1F0000EE094F82100021929462046FFF7A2FF2D
:10B2000028B994F82100401C84F8210000E003E0F4
:10B2100094F82100B042ECDB00BF94F8210070BD2F
:10B2200070B504460D461646F2B2E9B22046FFF765
:10B23000D3FF70BD90F84320202A03D1012280F86B
:10B240004420704710F8433F0278521C00F843290D
:10B2500000F12302D154F4E7F0B504460D46174639
:10B26000002605E0A95D2046FFF7E4FF701CC6B28A
:10B27000BE42F7DBF0BD30B504460D46E9B22046CC
:10B28000FFF7D8FF30BD70B504460D461646F2B242
:10B2900029462046FFF7E0FF70BD70B504460E4614
:10B2A000354604E029782046FFF7C4FF6D1C287856
:10B2B0000028F7D170BD014691F8210091F82020B7
:10B2C000801AC0B27047014691F8200091F8212001
:10B2D000904201D10020704711F8202F0878401CBF
:10B2E00001F82009885CF6E770D6000070B5FFF71A
:10B2F00045FA04464C480068251A4B480460B5F5E9
:10B300007A6F16D945F20820854212D200204749AB
:10B310000860474908704749444A126821F81250AA
:10B3200042480068401C41490860012042490870B9
:10B3300019E041480078012815D13E493B4A12687E
:10B3400021F8125039480068401C3849086040F61E
:10B350009800854207D8B5F5617F04D3344800785A
:10B36000401C3349087031480068082804D900207F
:10B37000314908702E49087070BD704710B50446F9
:10B3800000202E49086001204860022088600320C8
:10B39000C8600968C8B21021FFF718F92749496841
:10B3A000C8B21021FFF712F924498968C8B21021E8
:10B3B000FFF70CF92149C968C8B21021FFF706F957
:10B3C00004210620FFF702F90822AFF2DF01062070
:10B3D000FFF779F910BD70B506460C461546A5F580
:10B3E0007A704FF4FA4101EB401085B2134951F8DD
:10B3F0002410C8B22946FFF750F970BD10B50246B7
:10B40000094B22335B5C0B4C34F8130010BD014632
:10B4100007480078704770477047704700B5084884
:10B42000FFF7ABFF00BD00007CD6000078D600001F
:10B4300074D60000AAD6000075D6000038D80000E7
:10B44000CCD600000FB41CB50C0007AB009001D0A7
:10B450002044401E6A46074979440190069800F04E
:10B460001CFF002C03D06946002000F029FF1CBC03
:10B470005DF814FB6F0E000070B504468569006826
:10B480003026C10600D42026C0070AD107E0D4E93F
:10B49000012130469047206A00F1010020626D1EB4
:10B4A000F5D570BD70B5044685690068C0070AD03F
:10B4B00007E0D4E9012120209047206A00F1010033
:10B4C00020626D1EF5D570BD09684A0501D540B2F0
:10B4D0007047C905FCD500B2704709684A0501D517
:10B4E000C0B27047C905FCD580B2704770B505463B
:10B4F0000C46012A01D101200BE02868800600D506
:10B50000EA69002000E0401C904202D2215C002940
:10B51000F9D1A9692618091AA961296A014428469E
:10B520002962FFF7A9FF04E0D5E9012114F8010B16
:10B530009047B442F8D32846FFF7B4FF70BD00002F
:10B540002DE9F0418046002610687529414615A571
:10B5500012D0FFF7B9FF002803DAC0F1000012A5EE
:10B5600008E0D8F800108A0701D510A502E04907C5
:10B5700004D50FA5012601E0FFF7AFFF002408F175
:10B58000240704E000F0F5FE30313955641C002832
:10B59000F8D133462A4621464046BDE8F04100F046
:10B5A0006BBA0000000000002D0000002B0000001E
:10B5B000200000002DE9FF5F04468A461546DFF8AB
:10B5C000A880F8440027D8E900013E46CDE90201F1
:10B5D00011E03AF81610684602AA00F0AAFE411CD3
:10B5E00007D02168890603D5E269391891420ED83F
:10B5F000074406F101062068800602D5E069B842DA
:10B6000005DDAE42E5DB3AF816000028E1D1A0697D
:10B61000C01BA0612046FFF72FFFD8E90001CDE94C
:10B620000201002015E03AF81810684602AA00F05E
:10B6300080FE8146401C0AD0EB46002505E0D4E997
:10B6400001211BF8050090476D1C4D45F7D308F10B
:10B650000100B0428046E6DB206A38442062204682
:10B66000FFF720FFBDE8FF9F561E000070B504469F
:10B6700021461068FFF731FF002104F1240308E0A0
:10B6800000F0070202F130025A5401F101014FEAC1
:10B69000D0000028F4D12068002308A2050708D5AF
:10B6A00000F02000084304D0E069012304A2401EFA
:10B6B000E0612046BDE8704000F0DEB90000000007
:10B6C0003000000070B504460D4621461068FFF7B3
:10B6D00004FF2168090502D5104A7A4402E00F4AA6
:10B6E0007A440E32002104F1240307E000F00F0633
:10B6F0004FEA1010965D5E5401F101010028F5D16A
:10B7000020680023000704D5702D02D009B1113242
:10B7100002232046BDE8704000F0AEB9461D00008F
:10B720002DE9F05F4FF0000B054689464FF0010A06
:10B73000C0F820B02846E968884700287ED0252830
:10B7400002D0D5E90121B1E05C4F00267F442846B4
:10B75000E96888472028044608DB312C06D207EB2D
:10B76000040010F8200C08B10643F0E7B00701D53B
:10B7700026F00406C5F81CB00027C5F818B02A2C1E
:10B7800010D1284659F8041B05EB87029161E9683E
:10B790008847012F044628D1E869002830DA26F0CE
:10B7A00020062DE0A4F1300052460A2801461AD2A4
:10B7B000CAB105EB870092468046816108E0D8F85F
:10B7C000180000EB800004EB40003038C8F8180087
:10B7D0002846E968884704465046A4F130010A2902
:10B7E00001D20028EBD1012F0AD02E2C08D12846F7
:10B7F000E96888477F1C0446022F46F02006BEDB1E
:10B80000A869002803DA404246F00106A861F00763
:10B8100001D026F010066C2C01D0682C18D12746D8
:10B820002846E9688847B84204460BD180206C2F2F
:10B8300000D0C000E9680643284600E03BE08847A6
:10B84000044615E040206C2F00D0800006430FE036
:10B850004C2C05D06A2C03D0742C01D07A2C07D143
:10B8600058464C2CE6D080206A2CE3D00020E1E73B
:10B870000CB3A4F14100192802D8203446F4006624
:10B880004A46214628462E604E46FCF77DFC50B1C4
:10B89000012802D106F104094CE7F61D26F0070045
:10B8A00000F1080946E7D5E9012120469047286ABA
:10B8B000401C28623EE7286ABDE8F09FFC1C00009F
:10B8C000194910B517220A6036224A60174A184BE8
:10B8D000002100EB104442F82140164C491C372946
:10B8E00000FB0430F5DB10BD0120E9E70E4B30B55D
:10B8F0000E4C1968586854F8215054F82020491EFD
:10B900002A4444F820204FF03604A0F101001960C9
:10B9100002D5C3E9004003E00028586000DA5C600B
:10B9200022F0004030BD0000D0D60000F8D8000062
:10B93000E119D666CD0D01004FF0000200B51346A7
:10B9400094469646203922BFA0E80C50A0E80C503F
:10B95000B1F12001BFF4F7AF090728BFA0E80C50F0
:10B9600048BF0CC05DF804EB890028BF40F8042BE9
:10B9700008BF704748BF20F8022B11F0804F18BF56
:10B9800000F8012B704770477047704770B5064C40
:10B990007C44064D7D4403E0206820448047241DFC
:10B9A000AC42F9D170BD0000C01C0000C41C0000F6
:10B9B000014870477047000008DA000001487047EE
:10B9C000704700000CDA000070B5064600F0E8FC95
:10B9D0000568301D082838BF0820C01D20F0070466
:10B9E000B44220D929466868B8B10268A24210D38F
:10B9F00004F108039A423CBF42684A6007D3436897
:10BA00000219536003681B1B13604A600460001D29
:10BA100070BD014640680028E7D12146284600F065
:10BA2000CFFC0028DED1002070BD70B50546041F94
:10BA300000F0B6FC0168002D08BF70BD486801E049
:10BA400001464068002818BFA042F9D30A6853187D
:10BA5000A34218BF4C6003D123680C461A440A6005
:10BA600021680A1982421CBF606070BD4268626032
:10BA700000680844206070BD2DE9F0470D4604467B
:10BA80009246994600F124080168880604D5E069C9
:10BA900021F01001216000E001200027A84201DD13
:10BAA000A0EB0507A16907EB050202EB0900A1EB7A
:10BAB0000000A0612068C00602D42046FFF7DCFC2D
:10BAC000002608E0D4E901211AF806009047206A10
:10BAD000401C761C20624E45F4DB2068C0060AD567
:10BAE0002046FFF7C9FC06E0D4E901213020904749
:10BAF000206A401C2062381EA7F10107F4DC07E031
:10BB0000D4E9012118F805009047206A401C206202
:10BB1000281EA5F10105F3DC2046FFF7C3FC2168D0
:10BB20000220090600D40120BDE8F08770472DE906
:10BB3000FF4F0C4698468DB0D2E90010DDF868A0A2
:10BB4000CDE90810C0F30A550DB94FF0FF350021BB
:10BB500008464FF00000099900F44000002905DA7A
:10BB600000EB80004FF4400101EA50004FEA905B87
:10BB7000BBF1010F01DD4FF0FF3BDDE9080150EAA9
:10BB8000410016D1BAF1010F02D16FEA080207E0B5
:10BB9000302101E02154401C4045FBDB404600229F
:10BBA000002121540D99C1E9010A0A6011B0BDE8D4
:10BBB000F08FA5F2FF3544F610504543CBF100005D
:10BBC0000B904FEA2549BAF1000F03D1A9EB080504
:10BBD0006D1C01E0C8F100050B9A002D00DC5A46EF
:10BBE000294601DAC5F1000103A800F0B7FCDDE940
:10BBF000081000F087FEA0F500501F388DE8070000
:10BC00000398002D09DD42F21F015A46084403A99A
:10BC10000390684601F0E7F808E0A0F500505A46A6
:10BC20001F3803A90390684601F0F1F88DE807007A
:10BC30000004000C03D04FF0FF356E0801E00E4603
:10BC40001546BAF1000F26D1474608E0314628468E
:10BC500000F000FC02F1300205460E46E2557F1E60
:10BC6000F4D50023012786EA030185EA030008438F
:10BC7000CDF81C8003D0002709F1010005E02078F1
:10BC8000302803D10027A9F101008146002FCDF80B
:10BC9000189098D036E000200A9007460CE0112F4B
:10BCA00011DA3146284600F0D5FB02F13002054694
:10BCB0000E46E25507F10107002386EA030185EAF3
:10BCC00003000843EBD1002386EA030185EA030061
:10BCD000084310D13846002104E0235C625C6354C1
:10BCE000491C2254401E8142F7DBA7EB0800401E8E
:10BCF000CDE9060706E00A9820B94FF011084FF089
:10BD0000000A60E7079A0020A0540D98C0F808A028
:10BD1000079941600699016048E72DE9F04F044614
:10BD20008846D21D22F0070091B0D0E90010CDE97D
:10BD300002100146029801F0EBF90399CA0F4FF087
:10BD40002D0106D122682B21930702D4202101EA7C
:10BD5000C20103288B4601D0072806DB5B4602465A
:10BD60004146204600F0BCFB0EE12068800601D56C
:10BD7000E76900E006271120B8F1650F1ED0B8F181
:10BD8000660F29D0B8F1670F66D1012F00DA0127BD
:10BD90000023112F009300DC3846034602AA06A9AF
:10BDA0000EA8FFF7C4FE20683D460026000736D4E3
:10BDB0000F98A84200DA054606A829E00023112FB3
:10BDC000009300DA781C034602AA06A90EA8FFF722
:10BDD000AEFE00267D1C28E001234FF0004902AA98
:10BDE00006A90EA800933B46FFF7A1FEDDE90F5020
:10BDF000002620B90E9907F1010001EB0005781B20
:10BE000002D47D1CC0F1FF36A5EB070A24E06D1EAD
:10BE1000012D04DD411911F8011C3029F7D00E98CD
:10BE2000B84202DA10F1040F03DA4FF0010A0E985B
:10BE300011E0002802DC2D1A064405E0401CA8424F
:10BE400002DD0E9D05F101050E98A0EB060000F144
:10BE5000010A4FF0004081462068000703D4AA453C
:10BE600001DB4FF0FF3A0020B9F1004F0DF1170749
:10BE70008DF8170024D04FF002082B20B9F1000FE5
:10BE800001900BDA2D20C9F10009019006E0484627
:10BE900000F06FFA3031814607F8011DB8F100005B
:10BEA000A8F10108F3DCB9F1000FF0D1019807F80F
:10BEB000010D21684520090500D4652007F8010D12
:10BEC00004A8A0EB070000F107085FEA0B0000D010
:10BED000012000EB050101EBEA7101EB0800A1690B
:10BEE000A1EB0000A0F10100A0612068C00602D40F
:10BEF0002046FFF7C1FABBF1000F07D05846D4E93E
:10BF000001219047206A00F1010020622068C006EC
:10BF100025D52046FFF7B0FA21E0002E07DB0F9869
:10BF2000B04204DD06A8D4E90121805D02E0D4E935
:10BF3000012130209047206A401C2062761CAAF123
:10BF400001005FEA000A0AD100F030FAC068016817
:10BF5000405CD4E901219047206A401C2062281EE1
:10BF6000A5F10105D9DC07E0D4E9012117F8010B9F
:10BF70009047206A401C2062B8F10000A8F1010837
:10BF8000F2DC2046FFF78EFA02200FE62DE9F04F93
:10BF900004460D46D21D22F007008DB0D0E900976F
:10BFA0004846394601F0B4F8FA0F4FF02D0106D19A
:10BFB00022682B21930702D4202101EAC2018DF8C7
:10BFC0000C1001B1012103288B4601D0072807DBA3
:10BFD0000246294620469DF80C3000F081FA4EE1D9
:10BFE0002068800601D40D2500E0E569C7F30A56F4
:10BFF0000D2D51DA380D0021029008464FF0000057
:10C00000002F00F4400007DA00EB80004FF44001FD
:10C0100000EBD07001EA60004FEAA05ABAF1010FBC
:10C0200001DD4FF0FF3AA8000022182807D3019243
:10C03000A0F118024FF08051D140009104E04FF47C
:10C040008011C140CDE900210C30202803D32038D5
:10C0500009FA00F801E007FA00F8BAF1000F03DD71
:10C06000B8F1000F18D003E016D1B8F1004F13D388
:10C07000DDE9002319EB02095F41BAF1000F05D198
:10C08000B8F1004F02D19F4329EA02090298B0EBB0
:10C09000175F01D006F101067B4B7B442068000549
:10C0A00000D4133B4FF0300C03AA0BF1010002F84F
:10C0B0000BC0197C002E0BF1020A115404AA01DDF9
:10C0C0004FF0310C4FF001088DF810C002D0A6F2ED
:10C0D000FF3603E059EA470000D06C4E002D02DC29
:10C0E0002068000704D54FF002082E208DF81100BB
:10C0F000C44600200BE0C7F303413F01595C401CDC
:10C100006D1E02F80810052808F1010801DA002D5B
:10C11000F1DC00200CE003EB1971401C09786D1E66
:10C12000082802F8081008F101084FEA091901DA95
:10C13000002DF0DC2068800615D401E0A8F101088C
:10C14000E04505DD02EB080010F8010C3028F5D0C1
:10C15000B8F1000F07DD02EB080010F8010C2E28E3
:10C1600001D1A8F10108002D05DD3E2002F80800EC
:10C170006D1E08F10108587C002E02F8080008F135
:10C18000010806DA2D2002F80800764208F10108BD
:10C1900004E02B2002F8080008F101080A274FF4F8
:10C1A0007A739E420ADB96FBF3F000F1300103FB49
:10C1B000106602F8081008F1010801E0642E0BDB9C
:10C1C000642396FBF3F000F1300103FB106602F8E4
:10C1D000081008F1010801E00A2E07DB96FBF7F0D2
:10C1E00000F1300002F8080008F1010896FBF7F0B2
:10C1F00007FB106000F1300002F80800A06908F1A8
:10C20000010808EB05015144A0EB0100A061206882
:10C21000C00602D42046FFF72FF9216A03AE01EBD6
:10C220000A00206204E0D4E9012116F8010B9047CE
:10C23000BAF101008246F6D22068C00602D5204637
:10C24000FFF71AF904AE14E016F8010B3E280AD1E4
:10C25000206A2844206203E0D4E90121302090477D
:10C260006D1EF9D205E0D4E901219047206A401CF7
:10C270002062B8F10108E7D22046FFF713F90DB0AC
:10C280000220BDE8F08F0000D213000002FCFFFF87
:10C2900001694A1C02610878704710B50C461946BE
:10C2A00090B0CDE9024200220692044A7A44CDE9D8
:10C2B000042001A8FFF734FA10B010BDE1FFFFFF22
:10C2C0000A6802F8010B0A607047D1E900239A421C
:10C2D00002D2531C0B601070704710B5436913B144
:10C2E000AFF3008001E0FFF701F9012010BD1268F3
:10C2F00000F124010A7000224A700122EDE7116862
:10C300004FF0FF32E9E710B5436913B1AFF3008096
:10C3100001E0FFF74FF9012010BD126800F1240180
:10C3200082840022C2840122EDE711684FF0FF32BF
:10C33000E9E770B505460C46164600F029F8006896
:10C3400090F8011101290AD13246D0F8071143189B
:10C3500021462846BDE8704003F207131847FF2C1A
:10C3600004D8005D10B101202C7070BD4FF0FF307B
:10C3700070BD4FF00A01B0FBF1F202FB1101104653
:10C38000704700F055B9000000487047D4D900004C
:10C3900010B500F00BF8001D10BD0000410E0000AC
:10C3A0000148704770470000DCD900000148704721
:10C3B00070470000F4D9000070477047704770471D
:10C3C00038B504460A4600206946AFF300800028CD
:10C3D00008BF38BD02460099204600F05BF90120F5
:10C3E00038BD012000F07EB9F8B5AFF300800546F6
:10C3F00000200C46102000BF06462844A0420DD95C
:10C40000324669460020AFF30080070008BF00F005
:10C4100069F90098A04218BF0546C419FFF7C0FF8C
:10C42000F11D074621F007014E190560284600F06E
:10C430000AF8B44208BFF8BDA21B31463868BDE80F
:10C44000F84000F027B9002101604160806070472A
:10C450001020704730B5B0F10A024FEA900E71F12A
:10C4600000034EEA817EB0EB0E0061EB91014FEAD2
:10C47000101E4EEA017E10EB0E0041EB11114FEA47
:10C48000102E4EEA016E10EB0E0041EB11214FEA27
:10C49000104E4EEA014E10EB0E0041EB11414018D8
:10C4A00041F100014FEAD00040EA41704FEAD1016A
:10C4B00010EB80054FEA810444EA907444EB0104D8
:10C4C0006D1944EB0404521BA3414FF0000348BF15
:10C4D0000A3200D530BD401C41F1000130BD0000E2
:10C4E0002DE9F04104461F4603260168072A01F49E
:10C4F000006003DB15A520B915A502E015A500B95C
:10C5000015A521F010002060A069C01EA0610FB128
:10C51000401EA0612046FEF7AFFF0FB9206A06E07B
:10C52000D4E9012138469047206A401C2062C01C93
:10C53000206204E0D4E9012115F8010B9047761E32
:10C54000F8D22046FEF7AEFFBDE8F0814E414E0026
:10C550006E616E00494E4600696E66002DE9F04737
:10C56000174681468AB0314A7A4407A838CA01F58D
:10C57000DC5101F11B0138C038CA4FF0370204A862
:10C5800038C091FBF2F0A0F1800502FB10141B3CB7
:10C5900002D56442012000E00020DFF890A0804630
:10C5A0000026FA44AAF1B60A0DE0E00709D03A469F
:10C5B00006EB46000AEB800107A800F028FC07AB59
:10C5C00007C36410761C002CEFD1DFF860A001AE29
:10C5D000FA44AAF1A80A16E0E80712D00AEB041000
:10C5E00090E80E0086E80E00C068F84202D1039879
:10C5F000384403903A4601A904A800F008FC04ABB3
:10C6000007C36D10641C002DE6D13A46B8F1000F47
:10C6100007A904A802D000F0E6FB01E000F0F7FB58
:10C62000A9E807000AB0BDE8F0870000940F0000F9
:10C6300010B500F0A1F8016919B100220261884724
:10C6400001E08068804700F045F87546FFF79CFEE2
:10C65000AE4605006946534620F00700854618B0EF
:10C6600020B5FDF7E1FCBDE820404FF000064FF09B
:10C6700000074FF000084FF0000B21F00701AC4617
:10C68000ACE8C009ACE8C009ACE8C009ACE8C00936
:10C690008D4670478C4600E018464368002B18BF53
:10C6A0006345F9D303681844604507D0C81C20F0DF
:10C6B000070000F1040CACEB0100121A0CF10400AD
:10C6C000CCF80020FFF7B1B90446AFF30080204654
:10C6D000FBF7AAFD002000F08CF8FBF797FD012086
:10C6E00000F070F810B500F08BF8BDE8104000F0D5
:10C6F0007BB800004FF0013C50F8042B51F8043B8C
:10C700009A4221D1A2EB0C03934313EACC1317D125
:10C7100050F8042B51F8043B9A4215D1A2EB0C03BC
:10C72000934313EACC130BD150F8042B51F8043B7C
:10C730009A4209D1A2EB0C03934313EACC13DBD04A
:10C740004FF0000070470000D01A01BAB1FA81F131
:10C7500001F0180122FA01F0CB40C1F12001DBB257
:10C76000C0B2C01A2CFA01F3D11A914311EAC311D5
:10C77000E6D17047FFF7AEFF70B500F02FF8046800
:10C780000546B4B92020FFF71FF9040001D1FFF7D7
:10C79000A1FF094900202C60C4E900010749A160FC
:10C7A0002073206160610649A06109B100F04EF874
:10C7B000E061204670BD00000000000075C7000069
:10C7C0000000000003494FF01800ABBE70470000A6
:10C7D0000900000026000200704700000148704771
:10C7E0007047000010DA0000002801D0FFF7EABF10
:10C7F000704710B500F068F8BDE81040FFF7F4BFCF
:10C80000002110B5012800D102A108A000F042F8D3
:10C81000012010BD3A2048656170206D656D6F7212
:10C820007920636F72727570746564005349475262
:10C83000544D454D3A204F7574206F6620686561F0
:10C8400070206D656D6F72790000000010B5882052
:10C85000FFF7BAF8002801D00021017010BD80292F
:10C8600002D808B1017809B100207047012100F811
:10C87000081B704718B100F10802914201D0002056
:10C8800070470021017070470148704770470000F1
:10C89000D8D9000070B504460D460A2000E0641C9B
:10C8A00000F02AF834B120780028F8D102E06D1C9D
:10C8B00000F022F815B128780028F8D1BDE87040C2
:10C8C0000A2000F019B8000010B5002102A0FFF7FF
:10C8D000E1FF012010BD0000534947414252543A44
:10C8E0002041626E6F726D616C207465726D696E4D
:10C8F0006174696F6E00000008B5694600900320FE
:10C90000ABBE08BD5FEA400C08BF91F0000F4FEAD4
:10C910008C234FEAC12243EA51514FEA1C5018BF01
:10C9200000F5F0404FEA300018BF41F000415FEAE7
:10C930006C5C00F02980BCF1FF3F08BF40F08040F4
:10C940007047130C06BF12044FF0100C4FF0000C90
:10C95000130E04BF12020CF1080C130F04BF1201D6
:10C960000CF1040C930F04BF92000CF1020CD30FD6
:10C9700004BF52000CF1010C11464FF00002A0F16F
:10C980001F00A0EB0C00704711F0004F08BF70476C
:10C9900031F000413FF4D5AF0B0C06BF09044FF056
:10C9A000100C4FF0000C0B0E04BF09020CF1080C28
:10C9B0000B0F04BF09010CF1040C8B0F04BF89009D
:10C9C0000CF1020CCB0F04BF49000CF1010CCCF1AF
:10C9D0002003A0EB0C0022FA03F302FA0CF241EA66
:10C9E000030100F10100704720F07F4C80EA030052
:10C9F00023F07F47ACEB070303F57C5300F00040C6
:10CA000003F1FF032DE980494FEA154B09B44FEAC2
:10CA1000144325EA0B4E24EA03480FF2042606EBE2
:10CA2000132749083E785FEA320203FB0667C7F521
:10CA3000000707FB06F64FEA54374FEAD64606F1E1
:10CA4000020607FB066CCCF1005C4FEA1C472CEA9F
:10CA5000074C07FB06F40CFB06F504EB15464FEA02
:10CA6000961634BF00204FF000404FEAD13706FB46
:10CA700007FC4FEA1C4C0CFB0BF7D21B03FB0CF71B
:10CA800061EB07010CFB0EF7B0EB074072EB1742AE
:10CA90000CFB08F734BFA2EB0742B2EB074261EB95
:10CAA00017414FEA0C444FEA910706FB07FC4FEA97
:10CAB0001C4C0CFB0BF7B0EBC74072EB573203FB7F
:10CAC0000CF734BFA2EBC742B2EBC74261EB573160
:10CAD0000CFB0EF7B0EBC70072EB57720CFB08F7BC
:10CAE00034BFA2EBC702B2EBC70261EB5771039FE1
:10CAF0004FEA816141EA921104EBCC044FEAD1374D
:10CB00004FEA826206FB07FC42EA90124FEA80601D
:10CB10004FEA1C4C0CFB0BF7D21B03FB0CF761EB31
:10CB200007010CFB0EF7B0EB074072EB17420CFB52
:10CB300008F734BFA2EB0742B2EB074261EB1741A3
:10CB40004FEA8C554FEA910704EB9C2406FB07FC47
:10CB50004FEA1C4C0CFB0BF7B0EBC74072EB5732A3
:10CB600003FB0CF734BFA2EBC742B2EBC74261EB49
:10CB700057310CFB0EF7B0EBC70072EB57720CFB92
:10CB800008F734BFA2EBC702B2EBC70261EB5771E3
:10CB900015EB4C254FEA816141EA92114FEA82621E
:10CBA0004FEAD13742EA901206FB07FC44F1000439
:10CBB0004FEA80604FEA1C4C0CFB0BF7D21B03FBC7
:10CBC0000CF761EB07010CFB0EF7B0EB074072EBC3
:10CBD00017420CFB08F734BFA2EB0742B2EB074247
:10CBE00061EB174115EB1C154FEA813141EA924187
:10CBF0004FEA823242EA90424FEA80304FEA0C76A6
:10CC000044F1000448EA03434EEA0B484FF0000E9B
:10CC1000B2EB080C71EB030724BF624639464EEBBA
:10CC20000E0E4FF0000B0018524149414BEB0B0B1D
:10CC3000B2EB080C71EB03077BF1000B24BF6246DB
:10CC400039464EEB0E0E4FF0000B00185241494191
:10CC50004BEB0B0BB2EB080C71EB03077BF1000BFA
:10CC600024BF624639464EEB0E0E51EA020718BF4A
:10CC700046F0010616EB0E7655F1000254F1000164
:10CC800003D5BDE88901BDE80088BDE88901BDE89C
:10CC90000048B619524141EB0101A3F1010370476D
:10CCA00080807F7E7D7C7B7A7978777676757473E9
:10CCB000727171706F6E6E6D6C6C6B6A6A696868A8
:10CCC000676666656464636362616160605F5F5E3E
:10CCD0005E5D5D5C5C5B5B5A5A59595858575756B4
:10CCE0005655555554545353525252515150505019
:10CCF0004F4F4F4E4E4D4D4D4C4C4C4B4B4B4A4A6B
:10CD00004A494949484848474747474646464545AE
:10CD100045444444444343434342424242414141E7
:10CD2000002B26D4770021D01CB54FEA370703B477
:10CD30004FF010004FF010014FF000000FBCBDE8A5
:10CD400010400BF1010BBBF1010F08BF5FEA1707A1
:10CD500022BF12F1010211F101014FF0004143F134
:10CD6000000300F0004043EA00007047F9D3570881
:10CD7000DAE746EA064613F1400F4FEA16461FDD92
:10CD800013F1200FDFBF16430A46002120335B4218
:10CD9000C8D0C3F1200746EA064602FA07F74FEA71
:10CDA000164646EA0706C3F1200722FA03F201FA03
:10CDB00007F721FA03F14FF0000342EA0702B1E757
:10CDC00046EA020646EA06464FEA164646EA0106E3
:10CDD000BCBF46EA0646360C4FF000034FF0000297
:10CDE0004FF000019EE72DE9C048934630B491E82A
:10CDF000380007C831EA400C48BF34EA430C03D579
:10CE0000FFF7F2FDFFF78CFFF0BCBDE800882DE9CD
:10CE1000C048934630B491E8380007C810F0804FFE
:10CE200008BF13F0804F03D100F005F8FFF778FF3B
:10CE3000F0BCBDE8008820F07F4780EA030023F0C3
:10CE40007F4C07EB0C03A3F57C5300F00040A3F1EB
:10CE5000FE0392F0000F00F0B38095F0000F00F099
:10CE600077802DE901494FEA11404FEA144621EA43
:10CE7000004800FB06FC24EA064708FB06F607FB11
:10CE800008F800FB07F718EB06484CEB164C4FEA86
:10CE9000124B18EB07484FEA15464CEB174022EAB5
:10CEA0000B4E0BFB06FC25EA06470EFB06F607FBBE
:10CEB0000EFE0BFB07F71EEB064E4CEB164C4FF02D
:10CEC00000061EEB074E4CEB174B18EB0B0840F11E
:10CED000000018EB0E0B58EB000840F100008F1A11
:10CEE0004FF000013CBFC943661B14BFB5EB040CF7
:10CEF00000213CBFC943F61B4FEA17444EEA8E0E91
:10CF000027EA04454FEA1C4704FB07622CEA074C5A
:10CF100005FB07F70CFB05F604FB0CFC16EB0746BC
:10CF200042EB174216EB0C4642EB1C421BEB06068B
:10CF300058EB0202414146EA9E0601D5BDE801894F
:10CF4000B619524141EB0101A3F10103BDE801898A
:10CF50004FEA14454FEA114724EA054621EA074CF7
:10CF600005FB07F406FB07F70CFB06F105FB0CFCC1
:10CF700011EB074144EB17444FEA124711EB0C4108
:10CF800044EB1C4422EA074C05FB07F206FB07F7BB
:10CF90000CFB06F605FB0CFC16EB074642EB1742B2
:10CFA00016EB0C4642EB1C456A1854F1000148BFD1
:10CFB0007047B619524141EB0101A3F101037047DB
:10CFC00095F0000F37D04FEA11424FEA144721EA9B
:10CFD000024624EA074C02FB07F106FB07F70CFBAD
:10CFE00006F402FB0CFC14EB074441EB17414FEA3B
:10CFF000154714EB0C4441EB1C4125EA074C02FB9E
:10D0000007F506FB07F70CFB06F602FB0CFC16EB1C
:10D01000074645EB174516EB0C4645EB1C4212192B
:10D0200051F1000148BF7047B619524141EB01016F
:10D03000A3F1010370474FEA14454FEA114724EA70
:10D04000054621EA074C05FB07F106FB07F70CFB39
:10D0500006F24FF0000605FB0CFC12EB074241EB19
:10D06000174112EB0C4251EB1C4148BF704792181C
:10D0700041EB0101A3F101037047000070B50446C4
:10D080000D46268816F0200F08D0208820F02000BA
:10D090002080A288D1B2286900F0D2F816F0800F63
:10D0A00012D0A08910F0800F0ED00849486900F016
:10D0B000F7F828B10549486900F0A6F8A08003E018
:10D0C000A08920F08000A08170BD000024D700005E
:10D0D00010B500F001F810BD10B5FEF7A6FC10BDAC
:10D0E00010B500F001F810BD10B5040007D10124FF
:10D0F00005E0FEF75DFC006800B904488047204663
:10D10000FEF762FC0028F4D010BD000083C30000CD
:10D11000490050EAC12018BF04204A0D18BF40F052
:10D12000010040F2FF72B2EB515F08BF40F0020015
:10D13000012808BF052070472DE9F04106460F463B
:10D14000904600251020FEF73FFC040001D1012588
:10D1500007E0C4E902786660FEF730FC01682160F0
:10D1600004602846BDE8F0812DE9F0410746FEF74E
:10D1700025FC804615E0044627B1E068B84201D09E
:10D1800025460FE020682860D8F80060D4E9010146
:10D1900088472046FEF749FCD8F80000B04201D08D
:10D1A0004046054628680028E5D1BDE8F08100002A
:10D1B00010B500290AD00878002807D0054878441F
:10D1C000FFF798FA002801D0002010BD02487844EB
:10D1D00010BD00006A0300006203000010B50029C2
:10D1E0000AD00878002807D005487844FFF782FA6B
:10D1F000002801D0002010BD0248784410BD000076
:10D200005A0300005203000070B50446A068057878
:10D21000A0686168884203D1207C08B9002070BDF5
:10D22000207C30B1002020746168204600F024F892
:10D230006060A168204600F01FF8A0602846EEE775
:10D2400070B505460C46287CA0B96868047069680A
:10D25000284600F011F8A968884202D101202874FC
:10D2600006E06968284600F007F868600020287426
:10D27000204670BD0020FCE710B502460846D46881
:10D28000641E13682344834201D0401C00E01068F0
:10D2900010BD002101740168416001688160704720
:10D2A000014648688A68904201D1002070470120F9
:10D2B000FCE70160C2600368436003688360002389
:10D2C0000374704710B5FFF7DFFA4FF000010160FB
:10D2D00010BDFEF722BDFEF759BE0000000001029E
:10D2E00003040102030406070809020406080000FB
:10D2F00000080140000C01400010014000140140F2
:10D3000000180140001C0140002001400100020003
:10D31000040008001000200040008000000100020E
:10D3200000040008001000200040008000010203FB
:10D33000040506000102030405060708090A0B0C90
:10D340000D0E0F0004000000080000001000000097
:10D3500020000000400000008000000000010000EC
:10D3600010111213141516172021303132333435B1
:10D37000000102030405060708090A0B0C0D0E0F35
:10D3800010111415000000001000000000380140CA
:10D390000044004000480040004C00400050004065
:10D3A0001A132B3B4200000019000000120000007D
:10D3B0002B0000003B0000003C000000004000008B
:10D3C000000002000000040000000800000010003F
:10D3D000010000000200000004000000080000003E
:10D3E000100000002000000040000000800000004D
:10D3F000000100000002000000040000000800001E
:10D40000001000000020000000400000008000002C
:10D410000000010000000200000004000000000005
:10D42000000000003031323334353637383941426C
:10D430004344454640305800303132333435363776
:10D440003839616263646566403078000400000822
:10D450000000000000000002000100001030313226
:10D460003334353637383961626364656678700005
:10D47000303132333435363738394142434445460A
:10D480005850000002400000000000A00000000012
:10D4900005400000000000C8000000000C40000033
:10D4A0000000409C00000000194000000020BCBEAD
:10D4B0000000000034400000BFC91B8E00000004C3
:10D4C000B5400000504BCFD06607E2CF010000000E
:10D4D0006C4100003E8251AADFEEA734010000003B
:10D4E000D9420000DCB5A0E23A301F97FFFFFFFFF2
:10D4F000B4450000FD25A0C8E9A3C14FFFFFFFFF11
:10D50000FF3F00000000008000000000FF3F00001F
:10D510000000008000000000D8D60000D8D600002F
:10D52000600B00006C8100001C0000004300000044
:10D53000F8FFFFFF0C0000000E0000000F000000CD
:10D540002E0000001001000043000000F8FFFFFF64
:10D550000040404040404040404041414141414006
:10D5600040404040404040404040404040404040BB
:10D57000400502020202020202020202020202024A
:10D58000022020202020202020202002020202024F
:10D5900002029090909090901010101010101010A7
:10D5A00010101010101010101010101002020202B3
:10D5B00002028888888888880808080808080808F7
:10D5C00008080808080808080808080802020202F3
:10D5D000400000000000000000000000000000000B
:10D5E000000000000000000000000000000000003B
:10D5F000000000000000000000000000000000002B
:10D60000000000000000000000000000000000001A
:10D61000000000000000000000000000000000000A
:10D6200000000000000000000000000000000000FA
:10D6300000000000000000000000000000000000EA
:10D6400000000000000000000000000000000000DA
:10D650000000000035D7FFFFC5DDFFFF0000000020
:10D6600000000000000000000000000000000000BA
:10D6700001000000000000000000000000000000A9
:10D6800004050602070000000000E8030000DC05B6
:10D69000DC05DC05E80300000000000000000203D8
:10D6A00001040506070800000000DC05DC05DC05B8
:10D6B000DC05DC05DC05DC05DC05DC05DC05DC0562
:10D6C000DC05000000000000000000000000000079
:08D6D000000000000000000052
:040000050000A02532
:00000001FF
